:100000000C9446000C945D000C945D000C945D0013
:100010000C945D000C945D000C945D000C945D00EC
:100020000C945D000C945D000C945D000C945D00DC
:100030000C945D000C945D000C945D000C945D00CC
:100040000C945D000C945D000C945D000C945D00BC
:100050000C945D000C945D000C945D000C945D00AC
:100060000C945D000C945D000C945D000C945D009C
:100070000C945D000C945D000C945D000C945D008C
:100080000C945D000C945D000C945D0011241FBE67
:10009000CFEFD0E4DEBFCDBF11E0A0E0B1E0E6EBF2
:1000A000F1E000E00BBF02C007900D92AE30B10747
:1000B000D9F70E9488000C94D9000C940000CF93CB
:1000C000DF9300D01F92CDB7DEB789837B836A832D
:1000D00089818A3031F48A819B81BC018DE00E9444
:1000E0005F0080EC90E0FC018081882F90E08072BE
:1000F00099270097B1F386EC90E02981FC012083D9
:1001000080E090E00F900F900F90DF91CF910895D5
:10011000CF93DF9300D000D0CDB7DEB78AE290E076
:10012000FC0110828BE290E02FEFFC01208384E23F
:1001300090E026E0FC01208385E290E021E0FC01D4
:10014000208319821B821A8289E290E0FC0180815F
:100150008C8383E290E0FC018081817089838C81B3
:10016000882F90E0880F991F9B838A838981882F2D
:1001700090E02A813B81822B932B9B838A838A8107
:100180009B818634910518F082E089830CC08A81B6
:100190009B818630910538F08A819B818634910558
:1001A00010F484E0898385E290E02981FC012083BA
:0601B000CBCFF894FFCF55
:0E01B60000000002000000005F0000000000DA
:00000001FF
